{
  "contractName": "LockToken",
  "abi": [
    {
      "anonymous": false,
      "inputs": [
        {
          "indexed": false,
          "internalType": "address",
          "name": "",
          "type": "address"
        },
        {
          "indexed": false,
          "internalType": "uint256",
          "name": "",
          "type": "uint256"
        }
      ],
      "name": "EthDeposited",
      "type": "event"
    },
    {
      "anonymous": false,
      "inputs": [
        {
          "indexed": false,
          "internalType": "address",
          "name": "",
          "type": "address"
        },
        {
          "indexed": false,
          "internalType": "bytes32",
          "name": "",
          "type": "bytes32"
        }
      ],
      "name": "TokenAdded",
      "type": "event"
    },
    {
      "anonymous": false,
      "inputs": [
        {
          "indexed": false,
          "internalType": "bytes32",
          "name": "",
          "type": "bytes32"
        },
        {
          "indexed": false,
          "internalType": "uint256",
          "name": "",
          "type": "uint256"
        }
      ],
      "name": "TokenDeposited",
      "type": "event"
    },
    {
      "anonymous": false,
      "inputs": [
        {
          "indexed": false,
          "internalType": "bytes32",
          "name": "",
          "type": "bytes32"
        },
        {
          "indexed": false,
          "internalType": "uint256",
          "name": "",
          "type": "uint256"
        }
      ],
      "name": "TokenWithdrawn",
      "type": "event"
    },
    {
      "inputs": [
        {
          "internalType": "address",
          "name": "tokenAddress",
          "type": "address"
        },
        {
          "internalType": "bytes32",
          "name": "symbol",
          "type": "bytes32"
        }
      ],
      "name": "addToken",
      "outputs": [
        {
          "internalType": "bool",
          "name": "success",
          "type": "bool"
        }
      ],
      "stateMutability": "nonpayable",
      "type": "function"
    },
    {
      "inputs": [],
      "name": "depositEth",
      "outputs": [],
      "stateMutability": "payable",
      "type": "function",
      "payable": true
    },
    {
      "inputs": [
        {
          "internalType": "bytes32",
          "name": "symbol",
          "type": "bytes32"
        },
        {
          "internalType": "uint256",
          "name": "_amount",
          "type": "uint256"
        }
      ],
      "name": "depositToken",
      "outputs": [],
      "stateMutability": "nonpayable",
      "type": "function"
    },
    {
      "inputs": [
        {
          "internalType": "uint256",
          "name": "_amount",
          "type": "uint256"
        }
      ],
      "name": "withdrawEth",
      "outputs": [
        {
          "internalType": "bool",
          "name": "success",
          "type": "bool"
        }
      ],
      "stateMutability": "nonpayable",
      "type": "function"
    },
    {
      "inputs": [
        {
          "internalType": "uint256",
          "name": "_amount",
          "type": "uint256"
        },
        {
          "internalType": "bytes32",
          "name": "symbol",
          "type": "bytes32"
        }
      ],
      "name": "withdrawToken",
      "outputs": [],
      "stateMutability": "nonpayable",
      "type": "function"
    },
    {
      "inputs": [
        {
          "internalType": "uint256",
          "name": "_amount",
          "type": "uint256"
        },
        {
          "internalType": "bytes32",
          "name": "_symbol",
          "type": "bytes32"
        },
        {
          "internalType": "enum LockToken.Lock",
          "name": "_lockOption",
          "type": "uint8"
        }
      ],
      "name": "lockToken",
      "outputs": [
        {
          "internalType": "bool",
          "name": "success",
          "type": "bool"
        }
      ],
      "stateMutability": "nonpayable",
      "type": "function"
    },
    {
      "inputs": [
        {
          "internalType": "uint256",
          "name": "_amount",
          "type": "uint256"
        },
        {
          "internalType": "bytes32",
          "name": "_symbol",
          "type": "bytes32"
        }
      ],
      "name": "topUp",
      "outputs": [
        {
          "internalType": "bool",
          "name": "success",
          "type": "bool"
        }
      ],
      "stateMutability": "nonpayable",
      "type": "function"
    },
    {
      "inputs": [
        {
          "internalType": "uint256",
          "name": "_amount",
          "type": "uint256"
        },
        {
          "internalType": "bytes32",
          "name": "_symbol",
          "type": "bytes32"
        },
        {
          "internalType": "uint256",
          "name": "_txId",
          "type": "uint256"
        }
      ],
      "name": "withdrawLockedToken",
      "outputs": [
        {
          "internalType": "bool",
          "name": "success",
          "type": "bool"
        }
      ],
      "stateMutability": "nonpayable",
      "type": "function"
    }
  ],
  "bytecode": "0x608060405234801561001057600080fd5b50336000806101000a81548173ffffffffffffffffffffffffffffffffffffffff021916908373ffffffffffffffffffffffffffffffffffffffff160217905550612456806100606000396000f3fe60806040526004361061007b5760003560e01c8063c311d0491161004e578063c311d0491461012d578063d116c1491461016a578063f59596c214610193578063f5ff4bf6146101d05761007b565b8063439370b1146100805780637d34900a1461008a578063c0c1eebc146100b3578063c17acc38146100f0575b600080fd5b61008861020d565b005b34801561009657600080fd5b506100b160048036038101906100ac9190611e93565b61033f565b005b3480156100bf57600080fd5b506100da60048036038101906100d59190611dc9565b6105f9565b6040516100e7919061213a565b60405180910390f35b3480156100fc57600080fd5b5061011760048036038101906101129190611ecf565b610785565b604051610124919061213a565b60405180910390f35b34801561013957600080fd5b50610154600480360381019061014f9190611e6a565b6111cf565b604051610161919061213a565b60405180910390f35b34801561017657600080fd5b50610191600480360381019061018c9190611e2e565b61134a565b005b34801561019f57600080fd5b506101ba60048036038101906101b59190611f1e565b611573565b6040516101c7919061213a565b60405180910390f35b3480156101dc57600080fd5b506101f760048036038101906101f29190611e93565b611bcc565b604051610204919061213a565b60405180910390f35b61029034600260003373ffffffffffffffffffffffffffffffffffffffff1673ffffffffffffffffffffffffffffffffffffffff16815260200190815260200160002060007f4554480000000000000000000000000000000000000000000000000000000000815260200190815260200160002054611d1e90919063ffffffff16565b600260003373ffffffffffffffffffffffffffffffffffffffff1673ffffffffffffffffffffffffffffffffffffffff16815260200190815260200160002060007f45544800000000000000000000000000000000000000000000000000000000008152602001908152602001600020819055507f66ff7c8f71ccc7c36152a41920d0d3b46ef3034359f76aa1498ed4478c204b5c3334604051610335929190612111565b60405180910390a1565b80600073ffffffffffffffffffffffffffffffffffffffff166003600083815260200190815260200160002060000160009054906101000a900473ffffffffffffffffffffffffffffffffffffffff1673ffffffffffffffffffffffffffffffffffffffff1614156103e6576040517f08c379a00000000000000000000000000000000000000000000000000000000081526004016103dd906121d5565b60405180910390fd5b82600260003373ffffffffffffffffffffffffffffffffffffffff1673ffffffffffffffffffffffffffffffffffffffff1681526020019081526020016000206000848152602001908152602001600020541015610479576040517f08c379a0000000000000000000000000000000000000000000000000000000008152600401610470906121b5565b60405180910390fd5b6104dc83600260003373ffffffffffffffffffffffffffffffffffffffff1673ffffffffffffffffffffffffffffffffffffffff168152602001908152602001600020600085815260200190815260200160002054611d3490919063ffffffff16565b600260003373ffffffffffffffffffffffffffffffffffffffff1673ffffffffffffffffffffffffffffffffffffffff1681526020019081526020016000206000848152602001908152602001600020819055506003600083815260200190815260200160002060000160009054906101000a900473ffffffffffffffffffffffffffffffffffffffff1673ffffffffffffffffffffffffffffffffffffffff1663a9059cbb33856040518363ffffffff1660e01b81526004016105a1929190612111565b602060405180830381600087803b1580156105bb57600080fd5b505af11580156105cf573d6000803e3d6000fd5b505050506040513d601f19601f820116820180604052508101906105f39190611e05565b50505050565b60008060009054906101000a900473ffffffffffffffffffffffffffffffffffffffff1673ffffffffffffffffffffffffffffffffffffffff163373ffffffffffffffffffffffffffffffffffffffff161461065457600080fd5b600073ffffffffffffffffffffffffffffffffffffffff168373ffffffffffffffffffffffffffffffffffffffff1614156106c4576040517f08c379a00000000000000000000000000000000000000000000000000000000081526004016106bb90612175565b60405180910390fd5b60405180604001604052808473ffffffffffffffffffffffffffffffffffffffff168152602001838152506003600084815260200190815260200160002060008201518160000160006101000a81548173ffffffffffffffffffffffffffffffffffffffff021916908373ffffffffffffffffffffffffffffffffffffffff16021790555060208201518160010155905050600182908060018154018082558091505060019003906000526020600020016000909190919091505592915050565b600083600260003373ffffffffffffffffffffffffffffffffffffffff1673ffffffffffffffffffffffffffffffffffffffff168152602001908152602001600020600085815260200190815260200160002054101561081a576040517f08c379a000000000000000000000000000000000000000000000000000000000815260040161081190612155565b60405180910390fd5b6000600660003373ffffffffffffffffffffffffffffffffffffffff1673ffffffffffffffffffffffffffffffffffffffff1681526020019081526020016000206000846002811115610896577f4e487b7100000000000000000000000000000000000000000000000000000000600052602160045260246000fd5b81526020019081526020016000209050600060028111156108e0577f4e487b7100000000000000000000000000000000000000000000000000000000600052602160045260246000fd5b836002811115610919577f4e487b7100000000000000000000000000000000000000000000000000000000600052602160045260246000fd5b1415610b50576040518060e001604052803373ffffffffffffffffffffffffffffffffffffffff16815260200185815260200186815260200142815260200161096e6224ea0042611d4a90919063ffffffff16565b815260200160045481526020018460028111156109b4577f4e487b7100000000000000000000000000000000000000000000000000000000600052602160045260246000fd5b81525050806040518060e001604052803373ffffffffffffffffffffffffffffffffffffffff168152602001868152602001878152602001428152602001610a086224ea0042611d4a90919063ffffffff16565b81526020016004548152602001856002811115610a4e577f4e487b7100000000000000000000000000000000000000000000000000000000600052602160045260246000fd5b815250908060018154018082558091505060019003906000526020600020906007020160009091909190915060008201518160000160006101000a81548173ffffffffffffffffffffffffffffffffffffffff021916908373ffffffffffffffffffffffffffffffffffffffff1602179055506020820151816001015560408201518160020155606082015181600301556080820151816004015560a0820151816005015560c08201518160060160006101000a81548160ff02191690836002811115610b44577f4e487b7100000000000000000000000000000000000000000000000000000000600052602160045260246000fd5b021790555050506110a3565b60016002811115610b8a577f4e487b7100000000000000000000000000000000000000000000000000000000600052602160045260246000fd5b836002811115610bc3577f4e487b7100000000000000000000000000000000000000000000000000000000600052602160045260246000fd5b1415610dfa576040518060e001604052803373ffffffffffffffffffffffffffffffffffffffff168152602001858152602001868152602001428152602001610c1862eff10042611d4a90919063ffffffff16565b81526020016004548152602001846002811115610c5e577f4e487b7100000000000000000000000000000000000000000000000000000000600052602160045260246000fd5b81525050806040518060e001604052803373ffffffffffffffffffffffffffffffffffffffff168152602001868152602001878152602001428152602001610cb262eff10042611d4a90919063ffffffff16565b81526020016004548152602001856002811115610cf8577f4e487b7100000000000000000000000000000000000000000000000000000000600052602160045260246000fd5b815250908060018154018082558091505060019003906000526020600020906007020160009091909190915060008201518160000160006101000a81548173ffffffffffffffffffffffffffffffffffffffff021916908373ffffffffffffffffffffffffffffffffffffffff1602179055506020820151816001015560408201518160020155606082015181600301556080820151816004015560a0820151816005015560c08201518160060160006101000a81548160ff02191690836002811115610dee577f4e487b7100000000000000000000000000000000000000000000000000000000600052602160045260246000fd5b021790555050506110a2565b600280811115610e33577f4e487b7100000000000000000000000000000000000000000000000000000000600052602160045260246000fd5b836002811115610e6c577f4e487b7100000000000000000000000000000000000000000000000000000000600052602160045260246000fd5b14156110a1576040518060e001604052803373ffffffffffffffffffffffffffffffffffffffff168152602001858152602001868152602001428152602001610ec26301dfe20042611d4a90919063ffffffff16565b81526020016004548152602001846002811115610f08577f4e487b7100000000000000000000000000000000000000000000000000000000600052602160045260246000fd5b81525050806040518060e001604052803373ffffffffffffffffffffffffffffffffffffffff168152602001868152602001878152602001428152602001610f5d6301dfe20042611d4a90919063ffffffff16565b81526020016004548152602001856002811115610fa3577f4e487b7100000000000000000000000000000000000000000000000000000000600052602160045260246000fd5b815250908060018154018082558091505060019003906000526020600020906007020160009091909190915060008201518160000160006101000a81548173ffffffffffffffffffffffffffffffffffffffff021916908373ffffffffffffffffffffffffffffffffffffffff1602179055506020820151816001015560408201518160020155606082015181600301556080820151816004015560a0820151816005015560c08201518160060160006101000a81548160ff02191690836002811115611099577f4e487b7100000000000000000000000000000000000000000000000000000000600052602160045260246000fd5b021790555050505b5b5b61110685600260003373ffffffffffffffffffffffffffffffffffffffff1673ffffffffffffffffffffffffffffffffffffffff168152602001908152602001600020600087815260200190815260200160002054611d3490919063ffffffff16565b600260003373ffffffffffffffffffffffffffffffffffffffff1673ffffffffffffffffffffffffffffffffffffffff16815260200190815260200160002060008681526020019081526020016000208190555084600560003373ffffffffffffffffffffffffffffffffffffffff1673ffffffffffffffffffffffffffffffffffffffff168152602001908152602001600020600086815260200190815260200160002081905550600460008154809291906111c29061233c565b9190505550509392505050565b600081600260003373ffffffffffffffffffffffffffffffffffffffff1673ffffffffffffffffffffffffffffffffffffffff16815260200190815260200160002060007f4554480000000000000000000000000000000000000000000000000000000000815260200190815260200160002054101561124e57600080fd5b6112d182600260003373ffffffffffffffffffffffffffffffffffffffff1673ffffffffffffffffffffffffffffffffffffffff16815260200190815260200160002060007f4554480000000000000000000000000000000000000000000000000000000000815260200190815260200160002054611d3490919063ffffffff16565b600260003373ffffffffffffffffffffffffffffffffffffffff1673ffffffffffffffffffffffffffffffffffffffff16815260200190815260200160002060007f4554480000000000000000000000000000000000000000000000000000000000815260200190815260200160002081905550919050565b81600073ffffffffffffffffffffffffffffffffffffffff166003600083815260200190815260200160002060000160009054906101000a900473ffffffffffffffffffffffffffffffffffffffff1673ffffffffffffffffffffffffffffffffffffffff1614156113f1576040517f08c379a00000000000000000000000000000000000000000000000000000000081526004016113e8906121d5565b60405180910390fd5b61145482600260003373ffffffffffffffffffffffffffffffffffffffff1673ffffffffffffffffffffffffffffffffffffffff168152602001908152602001600020600086815260200190815260200160002054611d1e90919063ffffffff16565b600260003373ffffffffffffffffffffffffffffffffffffffff1673ffffffffffffffffffffffffffffffffffffffff1681526020019081526020016000206000858152602001908152602001600020819055506003600084815260200190815260200160002060000160009054906101000a900473ffffffffffffffffffffffffffffffffffffffff1673ffffffffffffffffffffffffffffffffffffffff166323b872dd3330856040518463ffffffff1660e01b815260040161151b939291906120da565b602060405180830381600087803b15801561153557600080fd5b505af1158015611549573d6000803e3d6000fd5b505050506040513d601f19601f8201168201806040525081019061156d9190611e05565b50505050565b600080600660003373ffffffffffffffffffffffffffffffffffffffff1673ffffffffffffffffffffffffffffffffffffffff1681526020019081526020016000206000848152602001908152602001600020905084600560003373ffffffffffffffffffffffffffffffffffffffff1673ffffffffffffffffffffffffffffffffffffffff168152602001908152602001600020600086815260200190815260200160002054101561162557600080fd5b80838154811061165e577f4e487b7100000000000000000000000000000000000000000000000000000000600052603260045260246000fd5b90600052602060002090600702016004015442101561167c57600080fd5b8083815481106116b5577f4e487b7100000000000000000000000000000000000000000000000000000000600052603260045260246000fd5b906000526020600020906007020160000160009054906101000a900473ffffffffffffffffffffffffffffffffffffffff1673ffffffffffffffffffffffffffffffffffffffff163373ffffffffffffffffffffffffffffffffffffffff161461171e57600080fd5b61178185600560003373ffffffffffffffffffffffffffffffffffffffff1673ffffffffffffffffffffffffffffffffffffffff168152602001908152602001600020600087815260200190815260200160002054611d3490919063ffffffff16565b600560003373ffffffffffffffffffffffffffffffffffffffff1673ffffffffffffffffffffffffffffffffffffffff16815260200190815260200160002060008681526020019081526020016000208190555061183885600260003373ffffffffffffffffffffffffffffffffffffffff1673ffffffffffffffffffffffffffffffffffffffff168152602001908152602001600020600087815260200190815260200160002054611d1e90919063ffffffff16565b600260003373ffffffffffffffffffffffffffffffffffffffff1673ffffffffffffffffffffffffffffffffffffffff168152602001908152602001600020600086815260200190815260200160002081905550611896858561033f565b6000600560003373ffffffffffffffffffffffffffffffffffffffff1673ffffffffffffffffffffffffffffffffffffffff168152602001908152602001600020600086815260200190815260200160002054148015611940575080838154811061192a577f4e487b7100000000000000000000000000000000000000000000000000000000600052603260045260246000fd5b9060005260206000209060070201600401544210155b15611bc45760008390505b6001828054905061195c91906122b6565b811015611b0f57816001826119719190612206565b815481106119a8577f4e487b7100000000000000000000000000000000000000000000000000000000600052603260045260246000fd5b90600052602060002090600702018282815481106119ef577f4e487b7100000000000000000000000000000000000000000000000000000000600052603260045260246000fd5b90600052602060002090600702016000820160009054906101000a900473ffffffffffffffffffffffffffffffffffffffff168160000160006101000a81548173ffffffffffffffffffffffffffffffffffffffff021916908373ffffffffffffffffffffffffffffffffffffffff16021790555060018201548160010155600282015481600201556003820154816003015560048201548160040155600582015481600501556006820160009054906101000a900460ff168160060160006101000a81548160ff02191690836002811115611af4577f4e487b7100000000000000000000000000000000000000000000000000000000600052602160045260246000fd5b02179055509050508080611b079061233c565b91505061194b565b5080805480611b47577f4e487b7100000000000000000000000000000000000000000000000000000000600052603160045260246000fd5b6001900381819060005260206000209060070201600080820160006101000a81549073ffffffffffffffffffffffffffffffffffffffff0219169055600182016000905560028201600090556003820160009055600482016000905560058201600090556006820160006101000a81549060ff0219169055505090555b509392505050565b600080600560003373ffffffffffffffffffffffffffffffffffffffff1673ffffffffffffffffffffffffffffffffffffffff1681526020019081526020016000206000848152602001908152602001600020541015611c61576040517f08c379a0000000000000000000000000000000000000000000000000000000008152600401611c5890612195565b60405180910390fd5b611cc483600560003373ffffffffffffffffffffffffffffffffffffffff1673ffffffffffffffffffffffffffffffffffffffff168152602001908152602001600020600085815260200190815260200160002054611d1e90919063ffffffff16565b600560003373ffffffffffffffffffffffffffffffffffffffff1673ffffffffffffffffffffffffffffffffffffffff16815260200190815260200160002060008481526020019081526020016000208190555092915050565b60008183611d2c9190612206565b905092915050565b60008183611d4291906122b6565b905092915050565b60008183611d58919061225c565b905092915050565b600081359050611d6f816123b4565b92915050565b600081519050611d84816123cb565b92915050565b600081359050611d99816123e2565b92915050565b600081359050611dae816123f9565b92915050565b600081359050611dc381612409565b92915050565b60008060408385031215611ddc57600080fd5b6000611dea85828601611d60565b9250506020611dfb85828601611d8a565b9150509250929050565b600060208284031215611e1757600080fd5b6000611e2584828501611d75565b91505092915050565b60008060408385031215611e4157600080fd5b6000611e4f85828601611d8a565b9250506020611e6085828601611db4565b9150509250929050565b600060208284031215611e7c57600080fd5b6000611e8a84828501611db4565b91505092915050565b60008060408385031215611ea657600080fd5b6000611eb485828601611db4565b9250506020611ec585828601611d8a565b9150509250929050565b600080600060608486031215611ee457600080fd5b6000611ef286828701611db4565b9350506020611f0386828701611d8a565b9250506040611f1486828701611d9f565b9150509250925092565b600080600060608486031215611f3357600080fd5b6000611f4186828701611db4565b9350506020611f5286828701611d8a565b9250506040611f6386828701611db4565b9150509250925092565b611f76816122ea565b82525050565b611f85816122fc565b82525050565b6000611f986012836121f5565b91507f4e6f7420656e6f7567682062616c616e636500000000000000000000000000006000830152602082019050919050565b6000611fd86015836121f5565b91507f496e76616c696420546f6b656e204164647265737300000000000000000000006000830152602082019050919050565b60006120186012836121f5565b91507f476f204c6f636b20536f6d6520546f6b656e00000000000000000000000000006000830152602082019050919050565b60006120586015836121f5565b91507f42616c616e6365204e6f7420537566666963656e7400000000000000000000006000830152602082019050919050565b60006120986011836121f5565b91507f4e6f7420612076616c696420746f6b656e0000000000000000000000000000006000830152602082019050919050565b6120d481612332565b82525050565b60006060820190506120ef6000830186611f6d565b6120fc6020830185611f6d565b61210960408301846120cb565b949350505050565b60006040820190506121266000830185611f6d565b61213360208301846120cb565b9392505050565b600060208201905061214f6000830184611f7c565b92915050565b6000602082019050818103600083015261216e81611f8b565b9050919050565b6000602082019050818103600083015261218e81611fcb565b9050919050565b600060208201905081810360008301526121ae8161200b565b9050919050565b600060208201905081810360008301526121ce8161204b565b9050919050565b600060208201905081810360008301526121ee8161208b565b9050919050565b600082825260208201905092915050565b600061221182612332565b915061221c83612332565b9250827fffffffffffffffffffffffffffffffffffffffffffffffffffffffffffffffff0382111561225157612250612385565b5b828201905092915050565b600061226782612332565b915061227283612332565b9250817fffffffffffffffffffffffffffffffffffffffffffffffffffffffffffffffff04831182151516156122ab576122aa612385565b5b828202905092915050565b60006122c182612332565b91506122cc83612332565b9250828210156122df576122de612385565b5b828203905092915050565b60006122f582612312565b9050919050565b60008115159050919050565b6000819050919050565b600073ffffffffffffffffffffffffffffffffffffffff82169050919050565b6000819050919050565b600061234782612332565b91507fffffffffffffffffffffffffffffffffffffffffffffffffffffffffffffffff82141561237a57612379612385565b5b600182019050919050565b7f4e487b7100000000000000000000000000000000000000000000000000000000600052601160045260246000fd5b6123bd816122ea565b81146123c857600080fd5b50565b6123d4816122fc565b81146123df57600080fd5b50565b6123eb81612308565b81146123f657600080fd5b50565b6003811061240657600080fd5b50565b61241281612332565b811461241d57600080fd5b5056fea2646970667358221220194036fc32eaaf811a59f1c336c2d7f4e7a8064f8e5ff7f96687df5019f7ab2164736f6c63430008000033",
  "immutableReferences": {},
  "source": "pragma solidity 0.8.0;\r\n\r\nimport \"./Piggybank.sol\"; \r\n\r\n\r\ncontract LockToken is PiggyBank {\r\n\r\n    using SafeMath for uint;\r\n\r\n    enum Lock{\r\n        ONE,\r\n        TWO,\r\n        THREE\r\n    }\r\n\r\n    struct LockFunds{\r\n        address fundOwner;\r\n        bytes32 Symbol;\r\n        uint amount;\r\n        uint startTime;\r\n        uint lockPeriod;\r\n        uint id;\r\n        Lock lockOption;\r\n    }\r\n\r\n    uint txId;\r\n\r\n    mapping(address => mapping(bytes32 => uint)) lockedTokenBalance;\r\n    mapping(address => mapping(uint => LockFunds[])) lockedFunds;\r\n    \r\n    function lockToken (uint _amount, bytes32 _symbol, Lock _lockOption) external returns(bool success){\r\n        require(tokenBalance[msg.sender][_symbol] >= _amount, \"Not enough balance\");\r\n        LockFunds[] storage newLockFunds = lockedFunds[msg.sender][uint(_lockOption)];\r\n        \r\n        if(_lockOption == Lock.ONE){\r\n            LockFunds(msg.sender, _symbol, _amount, block.timestamp, block.timestamp.mul(4 weeks), txId, _lockOption);\r\n            newLockFunds.push(LockFunds(msg.sender, _symbol, _amount, block.timestamp, block.timestamp.mul(4 weeks), txId, _lockOption));\r\n        }\r\n        \r\n        else if(_lockOption == Lock.TWO){\r\n            LockFunds(msg.sender, _symbol, _amount, block.timestamp, block.timestamp.mul(26 weeks), txId, _lockOption);\r\n            newLockFunds.push(LockFunds(msg.sender, _symbol, _amount, block.timestamp, block.timestamp.mul(26 weeks), txId, _lockOption));\r\n        }\r\n       \r\n        else if(_lockOption == Lock.THREE){\r\n            LockFunds(msg.sender, _symbol, _amount, block.timestamp, block.timestamp.mul(52 weeks), txId, _lockOption);\r\n            newLockFunds.push(LockFunds(msg.sender, _symbol, _amount, block.timestamp, block.timestamp.mul(52 weeks), txId, _lockOption));\r\n        }\r\n\r\n        tokenBalance[msg.sender][_symbol] = tokenBalance[msg.sender][_symbol].sub(_amount);\r\n        lockedTokenBalance[msg.sender][_symbol] = _amount;\r\n        txId++;\r\n        return success;\r\n    }\r\n\r\n    function topUp(uint _amount, bytes32 _symbol) external returns(bool success){\r\n        require(lockedTokenBalance[msg.sender][_symbol] >= 0, \"Go Lock Some Token\");\r\n        lockedTokenBalance[msg.sender][_symbol] = lockedTokenBalance[msg.sender][_symbol].add(_amount);\r\n        return success;\r\n    }\r\n\r\n    function withdrawLockedToken(uint _amount, bytes32 _symbol, uint _txId) external returns(bool success){\r\n        LockFunds[] storage newLockFunds = lockedFunds[msg.sender][_txId];\r\n        require(lockedTokenBalance[msg.sender][_symbol] >= _amount);\r\n        require(block.timestamp >= newLockFunds[_txId].lockPeriod);\r\n        require(msg.sender == newLockFunds[_txId].fundOwner);\r\n        lockedTokenBalance[msg.sender][_symbol] = lockedTokenBalance[msg.sender][_symbol].sub(_amount);\r\n        tokenBalance[msg.sender][_symbol] = tokenBalance[msg.sender][_symbol].add(_amount);\r\n        withdrawToken(_amount, _symbol);\r\n\r\n        if(lockedTokenBalance[msg.sender][_symbol] == 0 && block.timestamp >= newLockFunds[_txId].lockPeriod){\r\n            for(uint i = _txId; i < newLockFunds.length - 1; i++){\r\n                newLockFunds[i] = newLockFunds[i + 1];\r\n            }\r\n            newLockFunds.pop();\r\n        }\r\n\r\n        return success;\r\n    }\r\n}",
  "sourcePath": "C:\\Users\\USER\\Desktop\\solidity tutorials\\piggy_bank\\contracts\\LockToken.sol",
  "compiler": {
    "name": "solc",
    "version": "0.8.0+commit.c7dfd78e.Emscripten.clang"
  },
  "schemaVersion": "3.4.5",
  "updatedAt": "2022-03-14T16:35:04.002Z",
  "networkType": "ethereum",
  "devdoc": {
    "kind": "dev",
    "methods": {},
    "version": 1
  },
  "userdoc": {
    "kind": "user",
    "methods": {},
    "version": 1
  }
}