{
  "contractName": "PiggyBank",
  "abi": [
    {
      "anonymous": false,
      "inputs": [
        {
          "indexed": true,
          "internalType": "address",
          "name": "previousOwner",
          "type": "address"
        },
        {
          "indexed": true,
          "internalType": "address",
          "name": "newOwner",
          "type": "address"
        }
      ],
      "name": "OwnershipTransferred",
      "type": "event"
    },
    {
      "anonymous": false,
      "inputs": [
        {
          "indexed": false,
          "internalType": "address",
          "name": "",
          "type": "address"
        },
        {
          "indexed": false,
          "internalType": "bytes32",
          "name": "",
          "type": "bytes32"
        }
      ],
      "name": "TokenAdded",
      "type": "event"
    },
    {
      "inputs": [
        {
          "internalType": "address",
          "name": "tokenAddress",
          "type": "address"
        },
        {
          "internalType": "bytes32",
          "name": "symbol",
          "type": "bytes32"
        }
      ],
      "name": "addToken",
      "outputs": [
        {
          "internalType": "bool",
          "name": "success",
          "type": "bool"
        }
      ],
      "stateMutability": "nonpayable",
      "type": "function"
    },
    {
      "inputs": [],
      "name": "depositEth",
      "outputs": [],
      "stateMutability": "payable",
      "type": "function"
    },
    {
      "inputs": [
        {
          "internalType": "bytes32",
          "name": "symbol",
          "type": "bytes32"
        },
        {
          "internalType": "uint256",
          "name": "_amount",
          "type": "uint256"
        }
      ],
      "name": "depositToken",
      "outputs": [],
      "stateMutability": "nonpayable",
      "type": "function"
    },
    {
      "inputs": [
        {
          "internalType": "bytes32",
          "name": "symbol",
          "type": "bytes32"
        }
      ],
      "name": "getBalance",
      "outputs": [
        {
          "internalType": "uint256",
          "name": "",
          "type": "uint256"
        }
      ],
      "stateMutability": "view",
      "type": "function"
    },
    {
      "inputs": [],
      "name": "owner",
      "outputs": [
        {
          "internalType": "address",
          "name": "",
          "type": "address"
        }
      ],
      "stateMutability": "view",
      "type": "function"
    },
    {
      "inputs": [],
      "name": "renounceOwnership",
      "outputs": [],
      "stateMutability": "nonpayable",
      "type": "function"
    },
    {
      "inputs": [
        {
          "internalType": "address",
          "name": "newOwner",
          "type": "address"
        }
      ],
      "name": "transferOwnership",
      "outputs": [],
      "stateMutability": "nonpayable",
      "type": "function"
    },
    {
      "inputs": [
        {
          "internalType": "uint256",
          "name": "_amount",
          "type": "uint256"
        }
      ],
      "name": "withdrawEth",
      "outputs": [
        {
          "internalType": "bool",
          "name": "success",
          "type": "bool"
        }
      ],
      "stateMutability": "nonpayable",
      "type": "function"
    },
    {
      "inputs": [
        {
          "internalType": "uint256",
          "name": "_amount",
          "type": "uint256"
        },
        {
          "internalType": "bytes32",
          "name": "symbol",
          "type": "bytes32"
        }
      ],
      "name": "withdrawToken",
      "outputs": [],
      "stateMutability": "nonpayable",
      "type": "function"
    },
    {
      "inputs": [
        {
          "internalType": "uint256",
          "name": "_amount",
          "type": "uint256"
        },
        {
          "internalType": "bytes32",
          "name": "_symbol",
          "type": "bytes32"
        },
        {
          "internalType": "enum PiggyBank.Lock",
          "name": "_lockOption",
          "type": "uint8"
        }
      ],
      "name": "lockToken",
      "outputs": [
        {
          "internalType": "bool",
          "name": "success",
          "type": "bool"
        }
      ],
      "stateMutability": "nonpayable",
      "type": "function"
    },
    {
      "inputs": [
        {
          "internalType": "uint256",
          "name": "_amount",
          "type": "uint256"
        },
        {
          "internalType": "bytes32",
          "name": "_symbol",
          "type": "bytes32"
        }
      ],
      "name": "topUp",
      "outputs": [
        {
          "internalType": "bool",
          "name": "success",
          "type": "bool"
        }
      ],
      "stateMutability": "nonpayable",
      "type": "function"
    },
    {
      "inputs": [
        {
          "internalType": "uint256",
          "name": "_amount",
          "type": "uint256"
        },
        {
          "internalType": "bytes32",
          "name": "_symbol",
          "type": "bytes32"
        },
        {
          "internalType": "uint256",
          "name": "_txId",
          "type": "uint256"
        }
      ],
      "name": "withdrawLockedToken",
      "outputs": [
        {
          "internalType": "bool",
          "name": "success",
          "type": "bool"
        }
      ],
      "stateMutability": "nonpayable",
      "type": "function"
    },
    {
      "inputs": [
        {
          "internalType": "bytes32",
          "name": "symbol",
          "type": "bytes32"
        }
      ],
      "name": "getLockedTokenBalance",
      "outputs": [
        {
          "internalType": "uint256",
          "name": "",
          "type": "uint256"
        }
      ],
      "stateMutability": "view",
      "type": "function"
    },
    {
      "inputs": [
        {
          "internalType": "uint256",
          "name": "_txId",
          "type": "uint256"
        }
      ],
      "name": "getLockedFunds",
      "outputs": [
        {
          "components": [
            {
              "internalType": "address",
              "name": "fundOwner",
              "type": "address"
            },
            {
              "internalType": "bytes32",
              "name": "Symbol",
              "type": "bytes32"
            },
            {
              "internalType": "uint256",
              "name": "amount",
              "type": "uint256"
            },
            {
              "internalType": "uint256",
              "name": "startTime",
              "type": "uint256"
            },
            {
              "internalType": "uint256",
              "name": "lockPeriod",
              "type": "uint256"
            },
            {
              "internalType": "uint256",
              "name": "id",
              "type": "uint256"
            },
            {
              "internalType": "enum PiggyBank.Lock",
              "name": "lockOption",
              "type": "uint8"
            }
          ],
          "internalType": "struct PiggyBank.LockFunds[]",
          "name": "",
          "type": "tuple[]"
        }
      ],
      "stateMutability": "view",
      "type": "function"
    }
  ],
  "bytecode": "0x60806040523480156200001157600080fd5b5062000032620000266200003860201b60201c565b6200004060201b60201c565b62000104565b600033905090565b60008060009054906101000a900473ffffffffffffffffffffffffffffffffffffffff169050816000806101000a81548173ffffffffffffffffffffffffffffffffffffffff021916908373ffffffffffffffffffffffffffffffffffffffff1602179055508173ffffffffffffffffffffffffffffffffffffffff168173ffffffffffffffffffffffffffffffffffffffff167f8be0079c531659141344cd1fd0a4f28419497f9722a3daafe3b4186f6b6457e060405160405180910390a35050565b612e1c80620001146000396000f3fe6080604052600436106100dd5760003560e01c8063c17acc381161007f578063d116c14911610059578063d116c149146102c5578063f2fde38b146102ee578063f59596c214610317578063f5ff4bf614610354576100dd565b8063c17acc381461020e578063c1d4b35f1461024b578063c311d04914610288576100dd565b80637d34900a116100bb5780637d34900a146101405780638da5cb5b146101695780638e73946114610194578063c0c1eebc146101d1576100dd565b80630deccf3e146100e2578063439370b11461011f578063715018a614610129575b600080fd5b3480156100ee57600080fd5b5061010960048036038101906101049190612511565b610391565b60405161011691906129e2565b60405180910390f35b61012761054f565b005b34801561013557600080fd5b5061013e610648565b005b34801561014c57600080fd5b506101676004803603810190610162919061253a565b6106d0565b005b34801561017557600080fd5b5061017e61098a565b60405161018b9190612967565b60405180910390f35b3480156101a057600080fd5b506101bb60048036038101906101b691906124ac565b6109b3565b6040516101c89190612aff565b60405180910390f35b3480156101dd57600080fd5b506101f860048036038101906101f39190612447565b610a0d565b6040516102059190612a04565b60405180910390f35b34801561021a57600080fd5b5061023560048036038101906102309190612576565b610bbc565b6040516102429190612a04565b60405180910390f35b34801561025757600080fd5b50610272600480360381019061026d91906124ac565b611606565b60405161027f9190612aff565b60405180910390f35b34801561029457600080fd5b506102af60048036038101906102aa9190612511565b611660565b6040516102bc9190612a04565b60405180910390f35b3480156102d157600080fd5b506102ec60048036038101906102e791906124d5565b6117db565b005b3480156102fa57600080fd5b506103156004803603810190610310919061241e565b611a04565b005b34801561032357600080fd5b5061033e600480360381019061033991906125c5565b611afc565b60405161034b9190612a04565b60405180910390f35b34801561036057600080fd5b5061037b6004803603810190610376919061253a565b612155565b6040516103889190612a04565b60405180910390f35b6060600660003373ffffffffffffffffffffffffffffffffffffffff1673ffffffffffffffffffffffffffffffffffffffff1681526020019081526020016000206000838152602001908152602001600020805480602002602001604051908101604052809291908181526020016000905b8282101561054457838290600052602060002090600702016040518060e00160405290816000820160009054906101000a900473ffffffffffffffffffffffffffffffffffffffff1673ffffffffffffffffffffffffffffffffffffffff1673ffffffffffffffffffffffffffffffffffffffff16815260200160018201548152602001600282015481526020016003820154815260200160048201548152602001600582015481526020016006820160009054906101000a900460ff1660028111156104f9577f4e487b7100000000000000000000000000000000000000000000000000000000600052602160045260246000fd5b6002811115610531577f4e487b7100000000000000000000000000000000000000000000000000000000600052602160045260246000fd5b8152505081526020019060010190610403565b505050509050919050565b6105d234600260003373ffffffffffffffffffffffffffffffffffffffff1673ffffffffffffffffffffffffffffffffffffffff16815260200190815260200160002060007f45544800000000000000000000000000000000000000000000000000000000008152602001908152602001600020546122a790919063ffffffff16565b600260003373ffffffffffffffffffffffffffffffffffffffff1673ffffffffffffffffffffffffffffffffffffffff16815260200190815260200160002060007f4554480000000000000000000000000000000000000000000000000000000000815260200190815260200160002081905550565b6106506122bd565b73ffffffffffffffffffffffffffffffffffffffff1661066e61098a565b73ffffffffffffffffffffffffffffffffffffffff16146106c4576040517f08c379a00000000000000000000000000000000000000000000000000000000081526004016106bb90612a7f565b60405180910390fd5b6106ce60006122c5565b565b80600073ffffffffffffffffffffffffffffffffffffffff166003600083815260200190815260200160002060000160009054906101000a900473ffffffffffffffffffffffffffffffffffffffff1673ffffffffffffffffffffffffffffffffffffffff161415610777576040517f08c379a000000000000000000000000000000000000000000000000000000000815260040161076e90612adf565b60405180910390fd5b82600260003373ffffffffffffffffffffffffffffffffffffffff1673ffffffffffffffffffffffffffffffffffffffff168152602001908152602001600020600084815260200190815260200160002054101561080a576040517f08c379a000000000000000000000000000000000000000000000000000000000815260040161080190612abf565b60405180910390fd5b61086d83600260003373ffffffffffffffffffffffffffffffffffffffff1673ffffffffffffffffffffffffffffffffffffffff16815260200190815260200160002060008581526020019081526020016000205461238990919063ffffffff16565b600260003373ffffffffffffffffffffffffffffffffffffffff1673ffffffffffffffffffffffffffffffffffffffff1681526020019081526020016000206000848152602001908152602001600020819055506003600083815260200190815260200160002060000160009054906101000a900473ffffffffffffffffffffffffffffffffffffffff1673ffffffffffffffffffffffffffffffffffffffff1663a9059cbb33856040518363ffffffff1660e01b81526004016109329291906129b9565b602060405180830381600087803b15801561094c57600080fd5b505af1158015610960573d6000803e3d6000fd5b505050506040513d601f19601f820116820180604052508101906109849190612483565b50505050565b60008060009054906101000a900473ffffffffffffffffffffffffffffffffffffffff16905090565b6000600260003373ffffffffffffffffffffffffffffffffffffffff1673ffffffffffffffffffffffffffffffffffffffff1681526020019081526020016000206000838152602001908152602001600020549050919050565b6000610a176122bd565b73ffffffffffffffffffffffffffffffffffffffff16610a3561098a565b73ffffffffffffffffffffffffffffffffffffffff1614610a8b576040517f08c379a0000000000000000000000000000000000000000000000000000000008152600401610a8290612a7f565b60405180910390fd5b600073ffffffffffffffffffffffffffffffffffffffff168373ffffffffffffffffffffffffffffffffffffffff161415610afb576040517f08c379a0000000000000000000000000000000000000000000000000000000008152600401610af290612a5f565b60405180910390fd5b60405180604001604052808473ffffffffffffffffffffffffffffffffffffffff168152602001838152506003600084815260200190815260200160002060008201518160000160006101000a81548173ffffffffffffffffffffffffffffffffffffffff021916908373ffffffffffffffffffffffffffffffffffffffff16021790555060208201518160010155905050600182908060018154018082558091505060019003906000526020600020016000909190919091505592915050565b600083600260003373ffffffffffffffffffffffffffffffffffffffff1673ffffffffffffffffffffffffffffffffffffffff1681526020019081526020016000206000858152602001908152602001600020541015610c51576040517f08c379a0000000000000000000000000000000000000000000000000000000008152600401610c4890612a3f565b60405180910390fd5b6000600660003373ffffffffffffffffffffffffffffffffffffffff1673ffffffffffffffffffffffffffffffffffffffff1681526020019081526020016000206000846002811115610ccd577f4e487b7100000000000000000000000000000000000000000000000000000000600052602160045260246000fd5b8152602001908152602001600020905060006002811115610d17577f4e487b7100000000000000000000000000000000000000000000000000000000600052602160045260246000fd5b836002811115610d50577f4e487b7100000000000000000000000000000000000000000000000000000000600052602160045260246000fd5b1415610f87576040518060e001604052803373ffffffffffffffffffffffffffffffffffffffff168152602001858152602001868152602001428152602001610da56224ea004261239f90919063ffffffff16565b81526020016004548152602001846002811115610deb577f4e487b7100000000000000000000000000000000000000000000000000000000600052602160045260246000fd5b81525050806040518060e001604052803373ffffffffffffffffffffffffffffffffffffffff168152602001868152602001878152602001428152602001610e3f6224ea004261239f90919063ffffffff16565b81526020016004548152602001856002811115610e85577f4e487b7100000000000000000000000000000000000000000000000000000000600052602160045260246000fd5b815250908060018154018082558091505060019003906000526020600020906007020160009091909190915060008201518160000160006101000a81548173ffffffffffffffffffffffffffffffffffffffff021916908373ffffffffffffffffffffffffffffffffffffffff1602179055506020820151816001015560408201518160020155606082015181600301556080820151816004015560a0820151816005015560c08201518160060160006101000a81548160ff02191690836002811115610f7b577f4e487b7100000000000000000000000000000000000000000000000000000000600052602160045260246000fd5b021790555050506114da565b60016002811115610fc1577f4e487b7100000000000000000000000000000000000000000000000000000000600052602160045260246000fd5b836002811115610ffa577f4e487b7100000000000000000000000000000000000000000000000000000000600052602160045260246000fd5b1415611231576040518060e001604052803373ffffffffffffffffffffffffffffffffffffffff16815260200185815260200186815260200142815260200161104f62eff1004261239f90919063ffffffff16565b81526020016004548152602001846002811115611095577f4e487b7100000000000000000000000000000000000000000000000000000000600052602160045260246000fd5b81525050806040518060e001604052803373ffffffffffffffffffffffffffffffffffffffff1681526020018681526020018781526020014281526020016110e962eff1004261239f90919063ffffffff16565b8152602001600454815260200185600281111561112f577f4e487b7100000000000000000000000000000000000000000000000000000000600052602160045260246000fd5b815250908060018154018082558091505060019003906000526020600020906007020160009091909190915060008201518160000160006101000a81548173ffffffffffffffffffffffffffffffffffffffff021916908373ffffffffffffffffffffffffffffffffffffffff1602179055506020820151816001015560408201518160020155606082015181600301556080820151816004015560a0820151816005015560c08201518160060160006101000a81548160ff02191690836002811115611225577f4e487b7100000000000000000000000000000000000000000000000000000000600052602160045260246000fd5b021790555050506114d9565b60028081111561126a577f4e487b7100000000000000000000000000000000000000000000000000000000600052602160045260246000fd5b8360028111156112a3577f4e487b7100000000000000000000000000000000000000000000000000000000600052602160045260246000fd5b14156114d8576040518060e001604052803373ffffffffffffffffffffffffffffffffffffffff1681526020018581526020018681526020014281526020016112f96301dfe2004261239f90919063ffffffff16565b8152602001600454815260200184600281111561133f577f4e487b7100000000000000000000000000000000000000000000000000000000600052602160045260246000fd5b81525050806040518060e001604052803373ffffffffffffffffffffffffffffffffffffffff1681526020018681526020018781526020014281526020016113946301dfe2004261239f90919063ffffffff16565b815260200160045481526020018560028111156113da577f4e487b7100000000000000000000000000000000000000000000000000000000600052602160045260246000fd5b815250908060018154018082558091505060019003906000526020600020906007020160009091909190915060008201518160000160006101000a81548173ffffffffffffffffffffffffffffffffffffffff021916908373ffffffffffffffffffffffffffffffffffffffff1602179055506020820151816001015560408201518160020155606082015181600301556080820151816004015560a0820151816005015560c08201518160060160006101000a81548160ff021916908360028111156114d0577f4e487b7100000000000000000000000000000000000000000000000000000000600052602160045260246000fd5b021790555050505b5b5b61153d85600260003373ffffffffffffffffffffffffffffffffffffffff1673ffffffffffffffffffffffffffffffffffffffff16815260200190815260200160002060008781526020019081526020016000205461238990919063ffffffff16565b600260003373ffffffffffffffffffffffffffffffffffffffff1673ffffffffffffffffffffffffffffffffffffffff16815260200190815260200160002060008681526020019081526020016000208190555084600560003373ffffffffffffffffffffffffffffffffffffffff1673ffffffffffffffffffffffffffffffffffffffff168152602001908152602001600020600086815260200190815260200160002081905550600460008154809291906115f990612cbf565b9190505550509392505050565b6000600560003373ffffffffffffffffffffffffffffffffffffffff1673ffffffffffffffffffffffffffffffffffffffff1681526020019081526020016000206000838152602001908152602001600020549050919050565b600081600260003373ffffffffffffffffffffffffffffffffffffffff1673ffffffffffffffffffffffffffffffffffffffff16815260200190815260200160002060007f455448000000000000000000000000000000000000000000000000000000000081526020019081526020016000205410156116df57600080fd5b61176282600260003373ffffffffffffffffffffffffffffffffffffffff1673ffffffffffffffffffffffffffffffffffffffff16815260200190815260200160002060007f455448000000000000000000000000000000000000000000000000000000000081526020019081526020016000205461238990919063ffffffff16565b600260003373ffffffffffffffffffffffffffffffffffffffff1673ffffffffffffffffffffffffffffffffffffffff16815260200190815260200160002060007f4554480000000000000000000000000000000000000000000000000000000000815260200190815260200160002081905550919050565b81600073ffffffffffffffffffffffffffffffffffffffff166003600083815260200190815260200160002060000160009054906101000a900473ffffffffffffffffffffffffffffffffffffffff1673ffffffffffffffffffffffffffffffffffffffff161415611882576040517f08c379a000000000000000000000000000000000000000000000000000000000815260040161187990612adf565b60405180910390fd5b6118e582600260003373ffffffffffffffffffffffffffffffffffffffff1673ffffffffffffffffffffffffffffffffffffffff1681526020019081526020016000206000868152602001908152602001600020546122a790919063ffffffff16565b600260003373ffffffffffffffffffffffffffffffffffffffff1673ffffffffffffffffffffffffffffffffffffffff1681526020019081526020016000206000858152602001908152602001600020819055506003600084815260200190815260200160002060000160009054906101000a900473ffffffffffffffffffffffffffffffffffffffff1673ffffffffffffffffffffffffffffffffffffffff166323b872dd3330856040518463ffffffff1660e01b81526004016119ac93929190612982565b602060405180830381600087803b1580156119c657600080fd5b505af11580156119da573d6000803e3d6000fd5b505050506040513d601f19601f820116820180604052508101906119fe9190612483565b50505050565b611a0c6122bd565b73ffffffffffffffffffffffffffffffffffffffff16611a2a61098a565b73ffffffffffffffffffffffffffffffffffffffff1614611a80576040517f08c379a0000000000000000000000000000000000000000000000000000000008152600401611a7790612a7f565b60405180910390fd5b600073ffffffffffffffffffffffffffffffffffffffff168173ffffffffffffffffffffffffffffffffffffffff161415611af0576040517f08c379a0000000000000000000000000000000000000000000000000000000008152600401611ae790612a1f565b60405180910390fd5b611af9816122c5565b50565b600080600660003373ffffffffffffffffffffffffffffffffffffffff1673ffffffffffffffffffffffffffffffffffffffff1681526020019081526020016000206000848152602001908152602001600020905084600560003373ffffffffffffffffffffffffffffffffffffffff1673ffffffffffffffffffffffffffffffffffffffff1681526020019081526020016000206000868152602001908152602001600020541015611bae57600080fd5b808381548110611be7577f4e487b7100000000000000000000000000000000000000000000000000000000600052603260045260246000fd5b906000526020600020906007020160040154421015611c0557600080fd5b808381548110611c3e577f4e487b7100000000000000000000000000000000000000000000000000000000600052603260045260246000fd5b906000526020600020906007020160000160009054906101000a900473ffffffffffffffffffffffffffffffffffffffff1673ffffffffffffffffffffffffffffffffffffffff163373ffffffffffffffffffffffffffffffffffffffff1614611ca757600080fd5b611d0a85600560003373ffffffffffffffffffffffffffffffffffffffff1673ffffffffffffffffffffffffffffffffffffffff16815260200190815260200160002060008781526020019081526020016000205461238990919063ffffffff16565b600560003373ffffffffffffffffffffffffffffffffffffffff1673ffffffffffffffffffffffffffffffffffffffff168152602001908152602001600020600086815260200190815260200160002081905550611dc185600260003373ffffffffffffffffffffffffffffffffffffffff1673ffffffffffffffffffffffffffffffffffffffff1681526020019081526020016000206000878152602001908152602001600020546122a790919063ffffffff16565b600260003373ffffffffffffffffffffffffffffffffffffffff1673ffffffffffffffffffffffffffffffffffffffff168152602001908152602001600020600086815260200190815260200160002081905550611e1f85856106d0565b6000600560003373ffffffffffffffffffffffffffffffffffffffff1673ffffffffffffffffffffffffffffffffffffffff168152602001908152602001600020600086815260200190815260200160002054148015611ec95750808381548110611eb3577f4e487b7100000000000000000000000000000000000000000000000000000000600052603260045260246000fd5b9060005260206000209060070201600401544210155b1561214d5760008390505b60018280549050611ee59190612c14565b8110156120985781600182611efa9190612b64565b81548110611f31577f4e487b7100000000000000000000000000000000000000000000000000000000600052603260045260246000fd5b9060005260206000209060070201828281548110611f78577f4e487b7100000000000000000000000000000000000000000000000000000000600052603260045260246000fd5b90600052602060002090600702016000820160009054906101000a900473ffffffffffffffffffffffffffffffffffffffff168160000160006101000a81548173ffffffffffffffffffffffffffffffffffffffff021916908373ffffffffffffffffffffffffffffffffffffffff16021790555060018201548160010155600282015481600201556003820154816003015560048201548160040155600582015481600501556006820160009054906101000a900460ff168160060160006101000a81548160ff0219169083600281111561207d577f4e487b7100000000000000000000000000000000000000000000000000000000600052602160045260246000fd5b0217905550905050808061209090612cbf565b915050611ed4565b50808054806120d0577f4e487b7100000000000000000000000000000000000000000000000000000000600052603160045260246000fd5b6001900381819060005260206000209060070201600080820160006101000a81549073ffffffffffffffffffffffffffffffffffffffff0219169055600182016000905560028201600090556003820160009055600482016000905560058201600090556006820160006101000a81549060ff0219169055505090555b509392505050565b600080600560003373ffffffffffffffffffffffffffffffffffffffff1673ffffffffffffffffffffffffffffffffffffffff16815260200190815260200160002060008481526020019081526020016000205410156121ea576040517f08c379a00000000000000000000000000000000000000000000000000000000081526004016121e190612a9f565b60405180910390fd5b61224d83600560003373ffffffffffffffffffffffffffffffffffffffff1673ffffffffffffffffffffffffffffffffffffffff1681526020019081526020016000206000858152602001908152602001600020546122a790919063ffffffff16565b600560003373ffffffffffffffffffffffffffffffffffffffff1673ffffffffffffffffffffffffffffffffffffffff16815260200190815260200160002060008481526020019081526020016000208190555092915050565b600081836122b59190612b64565b905092915050565b600033905090565b60008060009054906101000a900473ffffffffffffffffffffffffffffffffffffffff169050816000806101000a81548173ffffffffffffffffffffffffffffffffffffffff021916908373ffffffffffffffffffffffffffffffffffffffff1602179055508173ffffffffffffffffffffffffffffffffffffffff168173ffffffffffffffffffffffffffffffffffffffff167f8be0079c531659141344cd1fd0a4f28419497f9722a3daafe3b4186f6b6457e060405160405180910390a35050565b600081836123979190612c14565b905092915050565b600081836123ad9190612bba565b905092915050565b6000813590506123c481612d7a565b92915050565b6000815190506123d981612d91565b92915050565b6000813590506123ee81612da8565b92915050565b60008135905061240381612dbf565b92915050565b60008135905061241881612dcf565b92915050565b60006020828403121561243057600080fd5b600061243e848285016123b5565b91505092915050565b6000806040838503121561245a57600080fd5b6000612468858286016123b5565b9250506020612479858286016123df565b9150509250929050565b60006020828403121561249557600080fd5b60006124a3848285016123ca565b91505092915050565b6000602082840312156124be57600080fd5b60006124cc848285016123df565b91505092915050565b600080604083850312156124e857600080fd5b60006124f6858286016123df565b925050602061250785828601612409565b9150509250929050565b60006020828403121561252357600080fd5b600061253184828501612409565b91505092915050565b6000806040838503121561254d57600080fd5b600061255b85828601612409565b925050602061256c858286016123df565b9150509250929050565b60008060006060848603121561258b57600080fd5b600061259986828701612409565b93505060206125aa868287016123df565b92505060406125bb868287016123f4565b9150509250925092565b6000806000606084860312156125da57600080fd5b60006125e886828701612409565b93505060206125f9868287016123df565b925050604061260a86828701612409565b9150509250925092565b600061262083836128bb565b60e08301905092915050565b61263581612c48565b82525050565b61264481612c48565b82525050565b600061265582612b2a565b61265f8185612b42565b935061266a83612b1a565b8060005b8381101561269b5781516126828882612614565b975061268d83612b35565b92505060018101905061266e565b5085935050505092915050565b6126b181612c5a565b82525050565b6126c081612c66565b82525050565b6126cf81612cad565b82525050565b60006126e2602683612b53565b91507f4f776e61626c653a206e6577206f776e657220697320746865207a65726f206160008301527f64647265737300000000000000000000000000000000000000000000000000006020830152604082019050919050565b6000612748601283612b53565b91507f4e6f7420656e6f7567682062616c616e636500000000000000000000000000006000830152602082019050919050565b6000612788601583612b53565b91507f496e76616c696420546f6b656e204164647265737300000000000000000000006000830152602082019050919050565b60006127c8602083612b53565b91507f4f776e61626c653a2063616c6c6572206973206e6f7420746865206f776e65726000830152602082019050919050565b6000612808601283612b53565b91507f476f204c6f636b20536f6d6520546f6b656e00000000000000000000000000006000830152602082019050919050565b6000612848601583612b53565b91507f42616c616e6365204e6f7420537566666963656e7400000000000000000000006000830152602082019050919050565b6000612888601183612b53565b91507f4e6f7420612076616c696420746f6b656e0000000000000000000000000000006000830152602082019050919050565b60e0820160008201516128d1600085018261262c565b5060208201516128e460208501826126b7565b5060408201516128f76040850182612949565b50606082015161290a6060850182612949565b50608082015161291d6080850182612949565b5060a082015161293060a0850182612949565b5060c082015161294360c08501826126c6565b50505050565b61295281612ca3565b82525050565b61296181612ca3565b82525050565b600060208201905061297c600083018461263b565b92915050565b6000606082019050612997600083018661263b565b6129a4602083018561263b565b6129b16040830184612958565b949350505050565b60006040820190506129ce600083018561263b565b6129db6020830184612958565b9392505050565b600060208201905081810360008301526129fc818461264a565b905092915050565b6000602082019050612a1960008301846126a8565b92915050565b60006020820190508181036000830152612a38816126d5565b9050919050565b60006020820190508181036000830152612a588161273b565b9050919050565b60006020820190508181036000830152612a788161277b565b9050919050565b60006020820190508181036000830152612a98816127bb565b9050919050565b60006020820190508181036000830152612ab8816127fb565b9050919050565b60006020820190508181036000830152612ad88161283b565b9050919050565b60006020820190508181036000830152612af88161287b565b9050919050565b6000602082019050612b146000830184612958565b92915050565b6000819050602082019050919050565b600081519050919050565b6000602082019050919050565b600082825260208201905092915050565b600082825260208201905092915050565b6000612b6f82612ca3565b9150612b7a83612ca3565b9250827fffffffffffffffffffffffffffffffffffffffffffffffffffffffffffffffff03821115612baf57612bae612d08565b5b828201905092915050565b6000612bc582612ca3565b9150612bd083612ca3565b9250817fffffffffffffffffffffffffffffffffffffffffffffffffffffffffffffffff0483118215151615612c0957612c08612d08565b5b828202905092915050565b6000612c1f82612ca3565b9150612c2a83612ca3565b925082821015612c3d57612c3c612d08565b5b828203905092915050565b6000612c5382612c83565b9050919050565b60008115159050919050565b6000819050919050565b6000819050612c7e82612d66565b919050565b600073ffffffffffffffffffffffffffffffffffffffff82169050919050565b6000819050919050565b6000612cb882612c70565b9050919050565b6000612cca82612ca3565b91507fffffffffffffffffffffffffffffffffffffffffffffffffffffffffffffffff821415612cfd57612cfc612d08565b5b600182019050919050565b7f4e487b7100000000000000000000000000000000000000000000000000000000600052601160045260246000fd5b7f4e487b7100000000000000000000000000000000000000000000000000000000600052602160045260246000fd5b60038110612d7757612d76612d37565b5b50565b612d8381612c48565b8114612d8e57600080fd5b50565b612d9a81612c5a565b8114612da557600080fd5b50565b612db181612c66565b8114612dbc57600080fd5b50565b60038110612dcc57600080fd5b50565b612dd881612ca3565b8114612de357600080fd5b5056fea2646970667358221220b4c7e4aaa378b2b8dfa59e3781e3fc0d678ee30c14731b32d4258a59a4aee93964736f6c63430008000033",
  "immutableReferences": {},
  "source": "pragma solidity >=0.6.0 <0.8.12;\r\npragma experimental ABIEncoderV2;\r\n\r\nimport \"./wallet.sol\"; \r\n\r\n\r\ncontract PiggyBank is Wallet {\r\n\r\n    using SafeMath for uint;\r\n\r\n    enum Lock{\r\n        ONE,\r\n        TWO,\r\n        THREE\r\n    }\r\n\r\n    struct LockFunds{\r\n        address fundOwner;\r\n        bytes32 Symbol;\r\n        uint amount;\r\n        uint startTime;\r\n        uint lockPeriod;\r\n        uint id;\r\n        Lock lockOption;\r\n    }\r\n\r\n    uint txId;\r\n\r\n    mapping(address => mapping(bytes32 => uint)) lockedTokenBalance;\r\n    mapping(address => mapping(uint => LockFunds[])) lockedFunds;\r\n    \r\n    function lockToken (uint _amount, bytes32 _symbol, Lock _lockOption) external returns(bool success){\r\n        require(tokenBalance[msg.sender][_symbol] >= _amount, \"Not enough balance\");\r\n        LockFunds[] storage newLockFunds = lockedFunds[msg.sender][uint(_lockOption)];\r\n        \r\n        if(_lockOption == Lock.ONE){\r\n            LockFunds(msg.sender, _symbol, _amount, block.timestamp, block.timestamp.mul(4 weeks), txId, _lockOption);\r\n            newLockFunds.push(LockFunds(msg.sender, _symbol, _amount, block.timestamp, block.timestamp.mul(4 weeks), txId, _lockOption));\r\n        }\r\n        \r\n        else if(_lockOption == Lock.TWO){\r\n            LockFunds(msg.sender, _symbol, _amount, block.timestamp, block.timestamp.mul(26 weeks), txId, _lockOption);\r\n            newLockFunds.push(LockFunds(msg.sender, _symbol, _amount, block.timestamp, block.timestamp.mul(26 weeks), txId, _lockOption));\r\n        }\r\n       \r\n        else if(_lockOption == Lock.THREE){\r\n            LockFunds(msg.sender, _symbol, _amount, block.timestamp, block.timestamp.mul(52 weeks), txId, _lockOption);\r\n            newLockFunds.push(LockFunds(msg.sender, _symbol, _amount, block.timestamp, block.timestamp.mul(52 weeks), txId, _lockOption));\r\n        }\r\n\r\n        tokenBalance[msg.sender][_symbol] = tokenBalance[msg.sender][_symbol].sub(_amount);\r\n        lockedTokenBalance[msg.sender][_symbol] = _amount;\r\n        txId++;\r\n        return success;\r\n    }\r\n\r\n    function topUp(uint _amount, bytes32 _symbol) external returns(bool success){\r\n        require(lockedTokenBalance[msg.sender][_symbol] >= 0, \"Go Lock Some Token\");\r\n        lockedTokenBalance[msg.sender][_symbol] = lockedTokenBalance[msg.sender][_symbol].add(_amount);\r\n        return success;\r\n    }\r\n\r\n    function withdrawLockedToken(uint _amount, bytes32 _symbol, uint _txId) external returns(bool success){\r\n        LockFunds[] storage newLockFunds = lockedFunds[msg.sender][_txId];\r\n        require(lockedTokenBalance[msg.sender][_symbol] >= _amount);\r\n        require(block.timestamp >= newLockFunds[_txId].lockPeriod);\r\n        require(msg.sender == newLockFunds[_txId].fundOwner);\r\n        lockedTokenBalance[msg.sender][_symbol] = lockedTokenBalance[msg.sender][_symbol].sub(_amount);\r\n        tokenBalance[msg.sender][_symbol] = tokenBalance[msg.sender][_symbol].add(_amount);\r\n        withdrawToken(_amount, _symbol);\r\n\r\n        if(lockedTokenBalance[msg.sender][_symbol] == 0 && block.timestamp >= newLockFunds[_txId].lockPeriod){\r\n            for(uint i = _txId; i < newLockFunds.length - 1; i++){\r\n                newLockFunds[i] = newLockFunds[i + 1];\r\n            }\r\n            newLockFunds.pop();\r\n        }\r\n\r\n        return success;\r\n    }\r\n\r\n    function getLockedTokenBalance(bytes32 symbol) external view returns(uint){\r\n        return lockedTokenBalance[msg.sender][symbol];\r\n    }\r\n\r\n    function getLockedFunds(uint _txId) external view returns(LockFunds[] memory){\r\n        return lockedFunds[msg.sender][_txId];\r\n    }\r\n\r\n}",
  "sourcePath": "C:\\Users\\USER\\Desktop\\Projects\\piggy_bank\\contracts\\PiggyBank.sol",
  "compiler": {
    "name": "solc",
    "version": "0.8.0+commit.c7dfd78e.Emscripten.clang"
  },
  "schemaVersion": "3.4.5",
  "updatedAt": "2022-03-15T11:28:34.961Z",
  "devdoc": {
    "kind": "dev",
    "methods": {
      "owner()": {
        "details": "Returns the address of the current owner."
      },
      "renounceOwnership()": {
        "details": "Leaves the contract without owner. It will not be possible to call `onlyOwner` functions anymore. Can only be called by the current owner. NOTE: Renouncing ownership will leave the contract without an owner, thereby removing any functionality that is only available to the owner."
      },
      "transferOwnership(address)": {
        "details": "Transfers ownership of the contract to a new account (`newOwner`). Can only be called by the current owner."
      }
    },
    "version": 1
  },
  "userdoc": {
    "kind": "user",
    "methods": {},
    "version": 1
  }
}