{
  "contractName": "Wallet",
  "abi": [
    {
      "anonymous": false,
      "inputs": [
        {
          "indexed": true,
          "internalType": "address",
          "name": "previousOwner",
          "type": "address"
        },
        {
          "indexed": true,
          "internalType": "address",
          "name": "newOwner",
          "type": "address"
        }
      ],
      "name": "OwnershipTransferred",
      "type": "event"
    },
    {
      "anonymous": false,
      "inputs": [
        {
          "indexed": false,
          "internalType": "address",
          "name": "",
          "type": "address"
        },
        {
          "indexed": false,
          "internalType": "bytes32",
          "name": "",
          "type": "bytes32"
        }
      ],
      "name": "TokenAdded",
      "type": "event"
    },
    {
      "inputs": [],
      "name": "owner",
      "outputs": [
        {
          "internalType": "address",
          "name": "",
          "type": "address"
        }
      ],
      "stateMutability": "view",
      "type": "function"
    },
    {
      "inputs": [],
      "name": "renounceOwnership",
      "outputs": [],
      "stateMutability": "nonpayable",
      "type": "function"
    },
    {
      "inputs": [
        {
          "internalType": "address",
          "name": "newOwner",
          "type": "address"
        }
      ],
      "name": "transferOwnership",
      "outputs": [],
      "stateMutability": "nonpayable",
      "type": "function"
    },
    {
      "inputs": [
        {
          "internalType": "address",
          "name": "tokenAddress",
          "type": "address"
        },
        {
          "internalType": "bytes32",
          "name": "symbol",
          "type": "bytes32"
        }
      ],
      "name": "addToken",
      "outputs": [
        {
          "internalType": "bool",
          "name": "success",
          "type": "bool"
        }
      ],
      "stateMutability": "nonpayable",
      "type": "function"
    },
    {
      "inputs": [
        {
          "internalType": "bytes32",
          "name": "symbol",
          "type": "bytes32"
        },
        {
          "internalType": "uint256",
          "name": "_amount",
          "type": "uint256"
        }
      ],
      "name": "depositToken",
      "outputs": [],
      "stateMutability": "nonpayable",
      "type": "function"
    },
    {
      "inputs": [
        {
          "internalType": "uint256",
          "name": "_amount",
          "type": "uint256"
        },
        {
          "internalType": "bytes32",
          "name": "symbol",
          "type": "bytes32"
        }
      ],
      "name": "withdrawToken",
      "outputs": [],
      "stateMutability": "nonpayable",
      "type": "function"
    },
    {
      "inputs": [],
      "name": "depositEth",
      "outputs": [],
      "stateMutability": "payable",
      "type": "function"
    },
    {
      "inputs": [
        {
          "internalType": "uint256",
          "name": "_amount",
          "type": "uint256"
        }
      ],
      "name": "withdrawEth",
      "outputs": [
        {
          "internalType": "bool",
          "name": "success",
          "type": "bool"
        }
      ],
      "stateMutability": "nonpayable",
      "type": "function"
    },
    {
      "inputs": [
        {
          "internalType": "bytes32",
          "name": "symbol",
          "type": "bytes32"
        }
      ],
      "name": "getBalance",
      "outputs": [
        {
          "internalType": "uint256",
          "name": "",
          "type": "uint256"
        }
      ],
      "stateMutability": "view",
      "type": "function"
    }
  ],
  "bytecode": "0x608060405234801561001057600080fd5b5061002d61002261003260201b60201c565b61003a60201b60201c565b6100fe565b600033905090565b60008060009054906101000a900473ffffffffffffffffffffffffffffffffffffffff169050816000806101000a81548173ffffffffffffffffffffffffffffffffffffffff021916908373ffffffffffffffffffffffffffffffffffffffff1602179055508173ffffffffffffffffffffffffffffffffffffffff168173ffffffffffffffffffffffffffffffffffffffff167f8be0079c531659141344cd1fd0a4f28419497f9722a3daafe3b4186f6b6457e060405160405180910390a35050565b6114488061010d6000396000f3fe6080604052600436106100865760003560e01c80638e739461116100595780638e73946114610100578063c0c1eebc1461013d578063c311d0491461017a578063d116c149146101b7578063f2fde38b146101e057610086565b8063439370b11461008b578063715018a6146100955780637d34900a146100ac5780638da5cb5b146100d5575b600080fd5b610093610209565b005b3480156100a157600080fd5b506100aa610302565b005b3480156100b857600080fd5b506100d360048036038101906100ce9190610f7a565b61038a565b005b3480156100e157600080fd5b506100ea610644565b6040516100f79190611149565b60405180910390f35b34801561010c57600080fd5b5061012760048036038101906101229190610eec565b61066d565b604051610134919061127f565b60405180910390f35b34801561014957600080fd5b50610164600480360381019061015f9190610e87565b6106c7565b60405161017191906111c4565b60405180910390f35b34801561018657600080fd5b506101a1600480360381019061019c9190610f51565b610876565b6040516101ae91906111c4565b60405180910390f35b3480156101c357600080fd5b506101de60048036038101906101d99190610f15565b6109f1565b005b3480156101ec57600080fd5b5061020760048036038101906102029190610e5e565b610c1a565b005b61028c34600260003373ffffffffffffffffffffffffffffffffffffffff1673ffffffffffffffffffffffffffffffffffffffff16815260200190815260200160002060007f4554480000000000000000000000000000000000000000000000000000000000815260200190815260200160002054610d1290919063ffffffff16565b600260003373ffffffffffffffffffffffffffffffffffffffff1673ffffffffffffffffffffffffffffffffffffffff16815260200190815260200160002060007f4554480000000000000000000000000000000000000000000000000000000000815260200190815260200160002081905550565b61030a610d28565b73ffffffffffffffffffffffffffffffffffffffff16610328610644565b73ffffffffffffffffffffffffffffffffffffffff161461037e576040517f08c379a00000000000000000000000000000000000000000000000000000000081526004016103759061121f565b60405180910390fd5b6103886000610d30565b565b80600073ffffffffffffffffffffffffffffffffffffffff166003600083815260200190815260200160002060000160009054906101000a900473ffffffffffffffffffffffffffffffffffffffff1673ffffffffffffffffffffffffffffffffffffffff161415610431576040517f08c379a00000000000000000000000000000000000000000000000000000000081526004016104289061125f565b60405180910390fd5b82600260003373ffffffffffffffffffffffffffffffffffffffff1673ffffffffffffffffffffffffffffffffffffffff16815260200190815260200160002060008481526020019081526020016000205410156104c4576040517f08c379a00000000000000000000000000000000000000000000000000000000081526004016104bb9061123f565b60405180910390fd5b61052783600260003373ffffffffffffffffffffffffffffffffffffffff1673ffffffffffffffffffffffffffffffffffffffff168152602001908152602001600020600085815260200190815260200160002054610df490919063ffffffff16565b600260003373ffffffffffffffffffffffffffffffffffffffff1673ffffffffffffffffffffffffffffffffffffffff1681526020019081526020016000206000848152602001908152602001600020819055506003600083815260200190815260200160002060000160009054906101000a900473ffffffffffffffffffffffffffffffffffffffff1673ffffffffffffffffffffffffffffffffffffffff1663a9059cbb33856040518363ffffffff1660e01b81526004016105ec92919061119b565b602060405180830381600087803b15801561060657600080fd5b505af115801561061a573d6000803e3d6000fd5b505050506040513d601f19601f8201168201806040525081019061063e9190610ec3565b50505050565b60008060009054906101000a900473ffffffffffffffffffffffffffffffffffffffff16905090565b6000600260003373ffffffffffffffffffffffffffffffffffffffff1673ffffffffffffffffffffffffffffffffffffffff1681526020019081526020016000206000838152602001908152602001600020549050919050565b60006106d1610d28565b73ffffffffffffffffffffffffffffffffffffffff166106ef610644565b73ffffffffffffffffffffffffffffffffffffffff1614610745576040517f08c379a000000000000000000000000000000000000000000000000000000000815260040161073c9061121f565b60405180910390fd5b600073ffffffffffffffffffffffffffffffffffffffff168373ffffffffffffffffffffffffffffffffffffffff1614156107b5576040517f08c379a00000000000000000000000000000000000000000000000000000000081526004016107ac906111ff565b60405180910390fd5b60405180604001604052808473ffffffffffffffffffffffffffffffffffffffff168152602001838152506003600084815260200190815260200160002060008201518160000160006101000a81548173ffffffffffffffffffffffffffffffffffffffff021916908373ffffffffffffffffffffffffffffffffffffffff16021790555060208201518160010155905050600182908060018154018082558091505060019003906000526020600020016000909190919091505592915050565b600081600260003373ffffffffffffffffffffffffffffffffffffffff1673ffffffffffffffffffffffffffffffffffffffff16815260200190815260200160002060007f455448000000000000000000000000000000000000000000000000000000000081526020019081526020016000205410156108f557600080fd5b61097882600260003373ffffffffffffffffffffffffffffffffffffffff1673ffffffffffffffffffffffffffffffffffffffff16815260200190815260200160002060007f4554480000000000000000000000000000000000000000000000000000000000815260200190815260200160002054610df490919063ffffffff16565b600260003373ffffffffffffffffffffffffffffffffffffffff1673ffffffffffffffffffffffffffffffffffffffff16815260200190815260200160002060007f4554480000000000000000000000000000000000000000000000000000000000815260200190815260200160002081905550919050565b81600073ffffffffffffffffffffffffffffffffffffffff166003600083815260200190815260200160002060000160009054906101000a900473ffffffffffffffffffffffffffffffffffffffff1673ffffffffffffffffffffffffffffffffffffffff161415610a98576040517f08c379a0000000000000000000000000000000000000000000000000000000008152600401610a8f9061125f565b60405180910390fd5b610afb82600260003373ffffffffffffffffffffffffffffffffffffffff1673ffffffffffffffffffffffffffffffffffffffff168152602001908152602001600020600086815260200190815260200160002054610d1290919063ffffffff16565b600260003373ffffffffffffffffffffffffffffffffffffffff1673ffffffffffffffffffffffffffffffffffffffff1681526020019081526020016000206000858152602001908152602001600020819055506003600084815260200190815260200160002060000160009054906101000a900473ffffffffffffffffffffffffffffffffffffffff1673ffffffffffffffffffffffffffffffffffffffff166323b872dd3330856040518463ffffffff1660e01b8152600401610bc293929190611164565b602060405180830381600087803b158015610bdc57600080fd5b505af1158015610bf0573d6000803e3d6000fd5b505050506040513d601f19601f82011682018060405250810190610c149190610ec3565b50505050565b610c22610d28565b73ffffffffffffffffffffffffffffffffffffffff16610c40610644565b73ffffffffffffffffffffffffffffffffffffffff1614610c96576040517f08c379a0000000000000000000000000000000000000000000000000000000008152600401610c8d9061121f565b60405180910390fd5b600073ffffffffffffffffffffffffffffffffffffffff168173ffffffffffffffffffffffffffffffffffffffff161415610d06576040517f08c379a0000000000000000000000000000000000000000000000000000000008152600401610cfd906111df565b60405180910390fd5b610d0f81610d30565b50565b60008183610d2091906112ab565b905092915050565b600033905090565b60008060009054906101000a900473ffffffffffffffffffffffffffffffffffffffff169050816000806101000a81548173ffffffffffffffffffffffffffffffffffffffff021916908373ffffffffffffffffffffffffffffffffffffffff1602179055508173ffffffffffffffffffffffffffffffffffffffff168173ffffffffffffffffffffffffffffffffffffffff167f8be0079c531659141344cd1fd0a4f28419497f9722a3daafe3b4186f6b6457e060405160405180910390a35050565b60008183610e029190611301565b905092915050565b600081359050610e19816113b6565b92915050565b600081519050610e2e816113cd565b92915050565b600081359050610e43816113e4565b92915050565b600081359050610e58816113fb565b92915050565b600060208284031215610e7057600080fd5b6000610e7e84828501610e0a565b91505092915050565b60008060408385031215610e9a57600080fd5b6000610ea885828601610e0a565b9250506020610eb985828601610e34565b9150509250929050565b600060208284031215610ed557600080fd5b6000610ee384828501610e1f565b91505092915050565b600060208284031215610efe57600080fd5b6000610f0c84828501610e34565b91505092915050565b60008060408385031215610f2857600080fd5b6000610f3685828601610e34565b9250506020610f4785828601610e49565b9150509250929050565b600060208284031215610f6357600080fd5b6000610f7184828501610e49565b91505092915050565b60008060408385031215610f8d57600080fd5b6000610f9b85828601610e49565b9250506020610fac85828601610e34565b9150509250929050565b610fbf81611335565b82525050565b610fce81611347565b82525050565b6000610fe160268361129a565b91507f4f776e61626c653a206e6577206f776e657220697320746865207a65726f206160008301527f64647265737300000000000000000000000000000000000000000000000000006020830152604082019050919050565b600061104760158361129a565b91507f496e76616c696420546f6b656e204164647265737300000000000000000000006000830152602082019050919050565b600061108760208361129a565b91507f4f776e61626c653a2063616c6c6572206973206e6f7420746865206f776e65726000830152602082019050919050565b60006110c760158361129a565b91507f42616c616e6365204e6f7420537566666963656e7400000000000000000000006000830152602082019050919050565b600061110760118361129a565b91507f4e6f7420612076616c696420746f6b656e0000000000000000000000000000006000830152602082019050919050565b6111438161137d565b82525050565b600060208201905061115e6000830184610fb6565b92915050565b60006060820190506111796000830186610fb6565b6111866020830185610fb6565b611193604083018461113a565b949350505050565b60006040820190506111b06000830185610fb6565b6111bd602083018461113a565b9392505050565b60006020820190506111d96000830184610fc5565b92915050565b600060208201905081810360008301526111f881610fd4565b9050919050565b600060208201905081810360008301526112188161103a565b9050919050565b600060208201905081810360008301526112388161107a565b9050919050565b60006020820190508181036000830152611258816110ba565b9050919050565b60006020820190508181036000830152611278816110fa565b9050919050565b6000602082019050611294600083018461113a565b92915050565b600082825260208201905092915050565b60006112b68261137d565b91506112c18361137d565b9250827fffffffffffffffffffffffffffffffffffffffffffffffffffffffffffffffff038211156112f6576112f5611387565b5b828201905092915050565b600061130c8261137d565b91506113178361137d565b92508282101561132a57611329611387565b5b828203905092915050565b60006113408261135d565b9050919050565b60008115159050919050565b6000819050919050565b600073ffffffffffffffffffffffffffffffffffffffff82169050919050565b6000819050919050565b7f4e487b7100000000000000000000000000000000000000000000000000000000600052601160045260246000fd5b6113bf81611335565b81146113ca57600080fd5b50565b6113d681611347565b81146113e157600080fd5b50565b6113ed81611353565b81146113f857600080fd5b50565b6114048161137d565b811461140f57600080fd5b5056fea26469706673582212200236f86b1265c5faa15eb2e213778b6dfefa13809ae2093948ff6d023f20035264736f6c63430008000033",
  "immutableReferences": {},
  "source": "pragma solidity >=0.6.0 <0.8.12;\r\n\r\nimport \"../node_modules/@openzeppelin/contracts/token/ERC20/IERC20.sol\";\r\nimport \"../node_modules/@openzeppelin/contracts/utils/math/SafeMath.sol\";\r\nimport \"../node_modules/@openzeppelin/contracts/access/Ownable.sol\";\r\n\r\ncontract Wallet is Ownable {\r\n    using SafeMath for uint;\r\n    \r\n    event TokenAdded(address, bytes32);\r\n    \r\n    struct Tokens{\r\n        address tokenAddress;\r\n        bytes32 symbol;\r\n    }\r\n    \r\n    bytes32[] tokenList;\r\n    mapping(address => mapping(bytes32 => uint)) tokenBalance;\r\n    mapping(bytes32 => Tokens) tokenMap;\r\n\r\n    modifier tokenExist(bytes32 symbol){\r\n        require(tokenMap[symbol].tokenAddress != address(0), \"Not a valid token\");\r\n        _;\r\n    }\r\n\r\n\r\n    function addToken(address tokenAddress, bytes32 symbol) external onlyOwner returns(bool success){\r\n        require(tokenAddress != address(0), \"Invalid Token Address\");\r\n        tokenMap[symbol] = Tokens(tokenAddress, symbol);\r\n        tokenList.push(symbol);\r\n        return success;\r\n    }\r\n\r\n    function depositToken(bytes32 symbol, uint _amount) external tokenExist(symbol) {\r\n        tokenBalance[msg.sender][symbol] = tokenBalance[msg.sender][symbol].add(_amount);\r\n        IERC20(tokenMap[symbol].tokenAddress).transferFrom(msg.sender, address(this), _amount);\r\n    }\r\n    \r\n    function withdrawToken(uint _amount, bytes32 symbol) public tokenExist(symbol) {\r\n        require(tokenBalance[msg.sender][symbol] >= _amount, \"Balance Not Sufficent\");\r\n        tokenBalance[msg.sender][symbol] = tokenBalance[msg.sender][symbol].sub(_amount);\r\n        IERC20(tokenMap[symbol].tokenAddress).transfer(msg.sender, _amount);\r\n    }\r\n\r\n    function depositEth () external payable {\r\n        tokenBalance[msg.sender][bytes32(\"ETH\")] = tokenBalance[msg.sender][bytes32(\"ETH\")].add(msg.value);\r\n    \r\n    }\r\n\r\n    function withdrawEth (uint _amount) external returns(bool success){\r\n        require(tokenBalance[msg.sender][bytes32(\"ETH\")] >= _amount);\r\n        tokenBalance[msg.sender][bytes32(\"ETH\")] = tokenBalance[msg.sender][bytes32(\"ETH\")].sub(_amount);\r\n        msg.sender.call{value: _amount};\r\n        return success;\r\n    }\r\n\r\n    function getBalance(bytes32 symbol) public view returns(uint){\r\n        return tokenBalance[msg.sender][symbol];\r\n    }\r\n\r\n}\r\n\r\n\r\n\r\n\r\n",
  "sourcePath": "C:\\Users\\USER\\Desktop\\Projects\\piggy_bank\\contracts\\wallet.sol",
  "compiler": {
    "name": "solc",
    "version": "0.8.0+commit.c7dfd78e.Emscripten.clang"
  },
  "schemaVersion": "3.4.5",
  "updatedAt": "2022-03-15T11:28:35.017Z",
  "devdoc": {
    "kind": "dev",
    "methods": {
      "owner()": {
        "details": "Returns the address of the current owner."
      },
      "renounceOwnership()": {
        "details": "Leaves the contract without owner. It will not be possible to call `onlyOwner` functions anymore. Can only be called by the current owner. NOTE: Renouncing ownership will leave the contract without an owner, thereby removing any functionality that is only available to the owner."
      },
      "transferOwnership(address)": {
        "details": "Transfers ownership of the contract to a new account (`newOwner`). Can only be called by the current owner."
      }
    },
    "version": 1
  },
  "userdoc": {
    "kind": "user",
    "methods": {},
    "version": 1
  }
}